S0150000546F75636820496E66696E69742E737265631B
S113000019C033C032C031C030C02FC032C02DC07F
S11300102CC02BC02AC029C028C027C026C025C098
S113002024C0E7C122C021C020C01FC01EC01DC003
S11300301CC01BC011241FBECFEFCDBFDFE3DEBF4A
S11300401EE3A0E0BEE3E4EFF4E102C005900D92EC
S1130050AC34B107D9F72EE3ACE4BEE301C01D9282
S1130060AB38B207E1F766D040CACACF26D246D130
S113007008951F920F920FB60F9211242F933F935E
S11300804F935F936F937F938F939F93AF93BF939C
S1130090EF93FF9369D182E080934301FF91EF9145
S11300A0BF91AF919F918F917F916F915F914F918C
S11300B03F912F910F900FBE0F901F90189580E0E5
S11300C090E088D1807880934C3E882321F089B1D8
S11300D08B7F89B903C089B1846089B981E090E0DC
S11300E079D1807880934C3E882321F089B18D7F2B
S11300F089B906C081B1846081B989B1826089B946
S113010082E090E067D1807880934C3E882321F090
S113011089B18E7F89B9089589B1816089B90895BB
S11301207894F2D080914F3E813019F410924F3E72
S1130130C6DF08959BDFF4DFFECF0895CF93C82F69
S113014020D28823E9F38C2F2CD221D28111FDCF28
S1130150CF9108950F931F93CF93DF9300D0CDB722
S1130160DEB780914D3E8F7049F00DC0F801E0502C
S1130170F24C8081E3DF0F5F1F4F02C000E010E00C
S11301800331110598F385E5D9DF80914D3ED6DF23
S113019019821A823DC089819A81F6D0192FCEDF47
S11301A0812FCCDF89819A81FCD0192FC7DF812F61
S11301B0C5DF89819A81E8D08C0189819A81F1D047
S11301C0081B190B802FBADF812FB8DF89819A8130
S11301D0F4D0192FB3DF812FB1DF89819A81FAD04E
S11301E088231CF481E0AADF02C080E0A7DF8981B4
S11301F09A81FC01EE0FFF1F8E0F9F1FFC01E55E2D
S1130200F14C80819BDF89819A81019689839A834D
S113021089819A81039708F4BECF80914E3E8EDF88
S113022080914D3E91E0980F90934D3E87DF8AEA8E
S113023085DF0F900F90DF91CF911F910F9108955B
S1130240E4E1F4E08081877F80838081887F84601B
S11302508083E6E1F4E08081877F80838081887FEA
S113026084608083E5E1F4E08081877F80838081FE
S1130270887F84608083089581E08093503E089550
S1130280CF93DF938EE29EE300D88FE69EE335D8CA
S1130290C0E0D0E009C0BE018EE29EE39CD8BE015E
S11302A08EE29EE3B7D82196C330D105A0F3C0E017
S11302B0D0E00EC0AE01440F551F440F551F4C0F24
S11302C05D1F405A514C6C2F83E19EE3E5D121968A
S11302D0C330D10578F380E0DF91CF9108958F5F2B
S11302E080934E3E37DF08959091410192FDFCCFFB
S11302F090E080934A0190934B01089580E2F4DFEB
S11303009FDFBEDF1ADF08958091513E813049F4AA
S11303106CE371E08EE29EE3FAD7811102C0109281
S1130320513E8091503E8130F1F41092503E2FD6D0
S1130330811108C083E19EE3CED1882329F081E0B6
S1130340CEDF02C080E0CBDFE091133EF091143E9B
S11303508081882324F481E08093513E03C081E0AE
S113036080934F3EF7DE089580915F3E8F5F8093C8
S11303705F3E843140F010925F3E81E08093513EB5
S113038084E190E07ED10895FC01EE0FFF1FEE0F93
S1130390FF1F8E0F9F1FFC01E05AF14C8181928157
S11303A00895FC01EE0FFF1FE80FF91FEE0FFF1F6A
S11303B0EB58F14C848195810895FC01EE0FFF1FE9
S11303C0EE0FFF1F8E0F9F1FFC01E05AF14C83813B
S11303D094810895E091173EF091183E9C01220FFC
S11303E0331F820F931F880F991FE80FF91F808115
S11303F008951F920F920FB60F9211242F933F93DB
S11304004F935F936F937F938F939F93AF93BF9318
S1130410EF93FF9340D8FF91EF91BF91AF919F91DC
S11304208F917F916F915F914F913F912F910F9099
S11304300FBE0F901F90189580E0089540E068ED7E
S113044081E690E082D080E00895789480E0089579
S113045080E008C0E82FF0E0E05FFB4F90819860F7
S113046090838F5F8830B0F380E008C0E82FF0E01D
S1130470E05DFB4F9081986090838F5F8830B0F38C
S113048080E008C0E82FF0E0E05BFB4F90819860CB
S113049090838F5F8830B0F3089585B1877F85B9E5
S11304A084B1886084B984B18B7F84B9E2E3F4E0D9
S11304B08081877F80835BD00895CADF81B18D7F7F
S11304C081B980B1826080B981B18B7F81B980B1FB
S11304D0846080B981B1877F81B980B1886080B937
S11304E080B18F7780B9E7E1F4E08081877F8083F2
S11304F085B18D7F85B984B1826084B984B18F7EE2
S113050084B9E4E3F4E08081877F808385B18F7DC3
S113051085B984B1806284B989B18E7F89B988B183
S1130520816088B989B18D7F89B988B1826088B9C1
S113053089B18B7F89B988B1846088B97FDF09D09C
S1130540ACDF83DF12D078DF0895FC0164BF408301
S11305500895809141018111FCCFE0E4F1E081E84C
S1130560808382E0828380E0089580E00895E0E063
S1130570F8E083E298E08087918780EC868380E0CE
S113058008958091040885FB882780F90895809157
S11305900408829586958695837091E089278170F9
S11305A008959091040895FFFCCF80930208089564
S11305B0CF92DF92FF920F931F93CF93DF93EC01BF
S11305C0AE81BF81EB01CC0FDD1FC60FD71FCA0F51
S11305D0DB1FFA80FC0144815581E6E0E69F90012F
S11305E0E79F300D11248A01020F131FF8012281A5
S11305F03381F90121813281F80104811581201BA5
S1130600310BE8812E1B3109EC01EA81FB81008169
S11306101181FA0140E050E04017510739F14617C3
S11306205707F9F012968C911297F8121AC080812C
S113063085588230E8F0C480D58082819381EC01B2
S113064089819A81C816D90660F48C199D09CC91C8
S1130650D0E0C817D90728F48C1B9D0B281739073D
S113066038F04F5F5F4F13963696D6CF80E001C0C7
S113067081E0DF91CF911F910F91FF90DF90CF9098
S113068008952091523E3091533E820F931F8093E0
S1130690523E9093533E08950097D9F04115510569
S11306A0C1F026E0629FB0011124DC011496ED91A3
S11306B0FC911597E60FF71F21E0208314968D9186
S11306C09C911597FC01E60FF71F4283538380E04A
S11306D008958BE008952F923F924F925F926F920C
S11306E07F928F929F92AF92BF92CF92DF92EF92BE
S11306F0FF920F931F93CF93DF93009709F47CC36A
S1130700EC01A12CB12C812C912C212CD12C552421
S1130710539433E0C32E45E8642E56E8752E62E008
S1130720362E78E0472EEA81FB81808191818816FC
S1130730990608F0A4C17501EE0CFF1CEC81FD8143
S1130740EE0DFF1DA281B3819C919E7109F0508230
S11307500C811D810E0D1F1DD8018C91843009F46C
S11307609DC038F48230D1F008F045C0813059F092
S11307707FC1853809F4BDC0863809F4F3C08730D9
S113078009F076C134C1911165C1F80130828C81C0
S11307909D81FC01EE0DFF1D41825CC1D8011196C3
S11307A02C911197222329F11296ED91FC91139724
S11307B0253018F0818192810EC0D80114968D9154
S11307C09C911597418152818417950769F04817C8
S11307D0590730F4019714968D939C93159704C090
S11307E00196F801848395832150D80111962C93A6
S11307F031C1F8012BC1D80114962D913C91159764
S11308001296ED91FC91139741815281241735077B
S113081009F42EC18E819F8142175307F8F4EA81AF
S1130820FB81241B350BDC01AA0DBB1D8C9190E0D0
S1130830058002C0959587950A94E2F799272817B1
S1130840390708F415C18481882309F411C187E0AC
S1130850F8018083EA81FB81248119C0FC01EA0D3F
S1130860FB1D421B530B808190E04817590708F485
S1130870FFC08281882329F0B401CE0199DE811161
S1130880F7C0E4E0D801EC93EA81FB8122818C81FA
S11308909D81FC01EE0DFF1D2183DCC0D80114965F
S11308A02D913C9115971296ED91FC9113978181AE
S11308B092818217930708F4BAC0EE81FF81EA0D92
S11308C0FB1D821B930B208130E02817390708F0A9
S11308D0C4C08281882329F0B401CE0169DE81116C
S11308E0C7C0F8018181882309F46AC081508183DB
S11308F0B1C0E881F981AA81BB8118968C91838368
S1130900EC81FD81EE0DFF1D44815581A281B381EF
S113091011968D919C91129784179507C0F0AE8122
S1130920BF81AA0DBB1D6C91262F30E011967C91DE
S11309307F5F02C0359527957A95E2F7841B950B66
S1130940621B262F30E02817390708F48FC0708205
S1130950EA81FB8122818C819D81FC01EE0DFF1DCA
S1130960218342C0D80114966D917C9115971296FB
S1130970ED91FC911397218132812617370758F4A2
S113098011968C911197811102C0CC926FC0815045
S1130990F80181836BC0EE81FF81EA0DFB1D80812C
S11309A0482F50E091819F5F02C0559547959A95D5
S11309B0E2F7261B370B841B90E08217930760F441
S11309C0D8016C92EA81FB8123818C819D81FC0199
S11309D0EE0DFF1D21834AC0F8018181811102C0FF
S11309E0C08244C0815081832224239433C0F801FF
S11309F0248135810280F381E02D818192818217E7
S1130A00930758F5281B390BEE81FF81EA0DFB1D76
S1130A10808190E0EA81FB81058002C095958795ED
S1130A200A94E2F799272817390718F4D801CC92C9
S1130A3016C0F801818181110BC050828C819D8187
S1130A40FC01EE0DFF1D0280F381E02DC08210C079
S1130A5081508183DD24D3940BC0F801C0828C8142
S1130A609D81FC01EE0DFF1D118202C022242394FE
S1130A70FFEF8F1A9F0A83E0A80EB11C54CEE881C1
S1130A80F981808187FF23C040E050E020E030E01E
S1130A90EA81FB81808191812817390798F4EC81E0
S1130AA0FD81E40FF51FA281B3818C9180FD05C007
S1130AB09081977F11F081608C932F5F3F4F4A5F45
S1130AC05F4FE6CFE881F98180818F778083D110F1
S1130AD007C0E881F98121106FC080818E7F6EC0CC
S1130AE0EA81FB8181858823A1F3E881F9818081F2
S1130AF080688083EA81FB818185813051F740E001
S1130B0050E020E030E096E0D92EEA81FB8160815C
S1130B10718126173707E8F60C811D81FA01EE0F63
S1130B20FF1FE00FF11F8081982F977FA1F1853877
S1130B3011F08330B1F5EE80FF80D701A40FB51F0B
S1130B401296BC90BB2039F180E090E0C12C86174E
S1130B509707F8F428173907D1F0D89ED001D99E09
S1130B60B00D1124A00FB11FAC91A43011F0A63820
S1130B7071F4DC01AA0FBB1FA80FB91FAE0DBF1D76
S1130B801296AC91BA1203C0CB01CC24C394019643
S1130B90DECFC11006C00280F381E02D80818E7FFC
S1130BA005C00280F381E02D8081816080832F5F06
S1130BB03F4F4D5F5F4FA9CF8081816080838091DB
S1130BC0523E9091533EE881F98121813281A901FD
S1130BD048535F4F4817590738F4821B930BAA24D4
S1130BE0A394A3E0BA2E44C08217930710F080E0C8
S1130BF004C1821B930B0197893C9105C0F3EFCF8D
S1130C00885C9109E881F9812181328128533F4F21
S1130C10218332832381211196C02481222311F060
S1130C2021502483E881F9812581222311F0215068
S1130C3025838A809B80D40116962C9116972111C6
S1130C401BC08A809B80F4012781211148C0EA815E
S1130C50FB812381222361F020E030E0A0E0B0E0BA
S1130C60EA81FB8140815181A417B50708F46EC065
S1130C70893C910528F6BBCF08811981F8012481AC
S1130C802111DFCFED90FC9060E070E040E050E097
S1130C904E155F05F1F0EC81FD81E60FF71F208111
S1130CA0233011F0283081F424813581C280D3802F
S1130CB0D6011196CD90DC9012972C153D0520F4A9
S1130CC02F5F3F4F248335834F5F5F4F6A5F7F4FB2
S1130CD0DFCFF4012681D80114962C93B2CF08817A
S1130CE01981D80115962C912111B1CFE080F180A2
S1130CF060E070E040E050E04E155F05F1F0EC81FB
S1130D00FD81E60FF71F2081233011F0283081F494
S1130D1024813581C280D380D6011196CD90DC9098
S1130D201297C216D30620F4215031092483358347
S1130D304F5F5F4F6A5F7F4FDFCFF4012781D80198
S1130D4015962C9384CF2150238381CFA901440F7E
S1130D50551FEC81FD81E40FF51F6081653809F0B2
S1130D6047C06181662319F06150618341C0A0824C
S1130D706C817D81FB01E40FF51F0280F381E02D7E
S1130D80B082EE81FF81E20FF31FD280DD2081F17A
S1130D9040E050E000E010E0EA81FB816081718175
S1130DA00617170728F5EE81FF81E40FF51F62810E
S1130DB0D61219C0BA01660F771FEC81FD814F016D
S1130DC0860E971EF401E280F380F701F080F0FEB6
S1130DD00AC0F401A082EC81FD81E60FF71F0280B6
S1130DE0F381E02DB0820F5F1F4F4D5F5F4FD4CF73
S1130DF011962D5F3F4F34CF8BE0DF91CF911F9140
S1130E000F91FF90EF90DF90CF90BF90AF909F90A5
S1130E108F907F906F905F904F903F902F900895A8
S1130E208091573E9091583EA091873EB091883E64
S1130E30ED91FC9111974081518125E0289FB001EB
S1130E40299F700D112420E030E084179507A8F441
S1130E501496ED91FC911597E20FF31FE60FF71F1F
S1130E60E0812B5F3F4FE0FD02C00196EECF8093FF
S1130E70573E9093583E80E008951092573E10924A
S1130E80583E81E00895BC01E091873EF091883E90
S1130E9086E0869F9001879F300D1124A281B38143
S1130EA0A20FB31F11968C9180932A06A281B3815D
S1130EB0A20FB31F8C918093260695E0969FA00104
S1130EC0979F500D1124A481B581A40FB51F1396CB
S1130ED08C9180931A06A481B581A40FB51F149632
S1130EE08C9180931B06A481B581A40FB51F8C91AE
S1130EF081FD9C9384819581DC01A40FB51F8C91A5
S1130F008C7169F4A281B381A20FB31F1496AC91C2
S1130F10A295AF70B0E0A251BB468C9101C08FE3A3
S1130F2080931C06A281B381A20FB31F12968C91E9
S1130F308B3110F48C5F01C08FE180930506A28190
S1130F40B381A20FB31F15968C9180930106A281E1
S1130F50B381A20FB31F13968C9182958F708093E7
S1130F60190682819381FC01E20FF31F83818F7044
S1130F70806180930206809118068360809318062E
S1130F8081E88093000681E08093080608953F92EB
S1130F904F925F926F927F928F929F92AF92BF9285
S1130FA0CF92DF92EF92FF920F931F93CF93DF9331
S1130FB08091563E882309F448C1A091873EB091A0
S1130FC0883EC090893ED0908A3E00E010E060E008
S1130FD070E0E12CF12C80E033243394D1E84D2EE1
S1130FE088248A94992493946D907C901197F301AA
S1130FF020813181E216F30608F023C1E60129912C
S113100039916E011496ED91FC911597E60FF71F37
S113101040814C7150E0569547955695479541153A
S1131020510521F041305105B9F002C11296CD911C
S1131030DC911397C00FD11F4C814F709D814917CC
S113104010F4941B01C090E002C0369527959A9540
S1131050E2F721833283EDC012964D915C91139790
S1131060400F511FEA010D8002C0369527950A945E
S1131070E2F721833283A380B4802115D2E03D07B7
S113108020F02F5F314091E005C0A401421B530BB7
S11310909A0190E0E3015A80D0E45D1205C03695D0
S11310A02795992319F009C0992339F04FEFA41615
S11310B0B40631F440828EE007C07724739401C0F3
S11310C0712C2A30310590F41496ED91FC9115970A
S11310D0E60FF71F908197FF30821496ED91FC91F3
S11310E01597E60FF71FA382B482A3C0E501CD2FA5
S11310F0DD27C295CF709C2FA50144275F70652E14
S1131100A501407F5527529542954F7045275F7042
S113111045275A2D5F70A52EC43030F09370D695B4
S1131120C795D695C7959C0F71103CC050E8550DD6
S1131130523010F456E007C053E005C0951768F428
S11311409F5F2F5C3109203D3105C0F706C0CFE019
S11311506C1649F063942551310926313105B8F7ED
S1131160DFE06D120EC0951720F49F5FD5E06D2E61
S113117008C0CFE06C2E05C04F3049F04F5F2250BD
S1131180310923303105C0F74F3009F065C04FE015
S1131190641681F1639445E05FC0992361F0915036
S11311A02F5C3109203D3105C0F705C0662041F0B0
S11311B06A942551310926313105C0F761100DC0FB
S11311C0992321F091505AE0652E07C0612C05C087
S11311D0442341F041502250310923303105C0F7F6
S11311E0411110C06620E9F16A944AE023303105C8
S11311F0C8F608C059132FC02330310540F14FE021
S1131200A42E4FE0943018F0990F990F9950C0E133
S11312104C9FA001112456294A29C92FD0E0DC2F64
S1131220CC27D295D07F4C2B5D2B4383548301C0B4
S1131230FFCFDFEFED1AFD0A6B5F7F4F0A5F1F4F91
S1131240D3CE92E09093563E0EC083E00CC04FE0A4
S11312502FE0A22ED7CF4FE02330310508F073CF13
S1131260D1CF40E0CFCFDF91CF911F910F91FF906D
S1131270EF90DF90CF90BF90AF909F908F907F9032
S11312806F905F904F903F900895CF93DC01892B2E
S113129079F1ED91FC9111976081718140E050E00A
S11312A020E030E090E02617370779F01296ED91B0
S11312B0FC911397E40FF51FC08181818C2B982B2F
S11312C02F5F3F4F4A5F5F4FEECF992399F0809194
S11312D0563E811106C09093220681E08093563ECB
S11312E005C080912206982B9093220680E003C0CB
S11312F08BE001C082E0CF910895009731F0809394
S1131300893E90938A3E80E008958BE008956115AC
S1131310710591F1009781F12091563E222371F1DC
S1131320243071F18093873E9093883E6093543EBD
S11313307093553E20EC20931806DC01ED91FC914E
S11313402281203421F420911806206205C020381F
S113135041F42091180628622093180610921E0664
S113136013C0213879F420911806286220931806B6
S113137026E820931E0608C08BE0089583E00895B4
S113138081E0089582E0089510920006DC01ED9159
S1131390FC918481803108F080E18093030681E030
S11313A080930B0680930A0680934B3E1092573E1F
S11313B01092583E35DD81110AC084E08093563E78
S11313C08091573E9091583E5EDD80E0089582E022
S11313D08093563E08950097C9F0DC01ED91FC918D
S11313E01197208131812617370790F045E0469FF9
S11313F09001479F300D11241496ED91FC9115979F
S1131400E20FF31F81E0808380E008958BE008956C
S113141082E00895FC01892BD1F1A081B1818D91E5
S11314209C91119786179707A0F112969C910480BE
S1131430F581E02D903459F485E0869FD001879F93
S1131440B00D1124AE0FBF1F84E392E00DC090587D
S1131450923080F485E0869FD001879FB00D1124DF
S1131460AE0FBF1F87E695E013968D939C93149758
S113147080E001C082E095E0969F9001979F300D37
S11314801124E20FF31F90819260908308958BE002
S1131490089582E00895109200064091100650913C
S11314A011068091573E9091583E9C01220F331FA4
S11314B0E091893EF0918A3EE20FF31F408351830D
S11314C001968093573E9093583EAADC811108C040
S11314D084E08093563E8091573E9091583ED3CC01
S11114E0E091543EF091553E0994F894FFCFEC
S10914EE3F1C0B05030185
S11314F45FB400864A03EB00000000000000AA5514
S1131504016EA0593E243E753E1B3E140100140195
S11315140014010003000400050014051401463EF0
S1131524343E603E00041403030400011403030462
S10F1534000214030304030080300001D3
S9030000FC
